{
  "_format": "hh-sol-artifact-1",
  "contractName": "CertificateRegistry",
  "sourceName": "contracts/CertificateRegistry.sol",
  "abi": [
    {
      "anonymous": false,
      "inputs": [
        {
          "indexed": true,
          "internalType": "bytes32",
          "name": "certId",
          "type": "bytes32"
        },
        {
          "indexed": false,
          "internalType": "address",
          "name": "student",
          "type": "address"
        },
        {
          "indexed": false,
          "internalType": "address",
          "name": "institution",
          "type": "address"
        }
      ],
      "name": "CertificateIssued",
      "type": "event"
    },
    {
      "anonymous": false,
      "inputs": [
        {
          "indexed": true,
          "internalType": "bytes32",
          "name": "certId",
          "type": "bytes32"
        },
        {
          "indexed": false,
          "internalType": "uint256",
          "name": "timestamp",
          "type": "uint256"
        }
      ],
      "name": "CertificateRevoked",
      "type": "event"
    },
    {
      "anonymous": false,
      "inputs": [
        {
          "indexed": true,
          "internalType": "address",
          "name": "account",
          "type": "address"
        },
        {
          "indexed": false,
          "internalType": "enum AccessControl.Role",
          "name": "role",
          "type": "uint8"
        }
      ],
      "name": "RoleGranted",
      "type": "event"
    },
    {
      "anonymous": false,
      "inputs": [
        {
          "indexed": true,
          "internalType": "address",
          "name": "account",
          "type": "address"
        }
      ],
      "name": "RoleRevoked",
      "type": "event"
    },
    {
      "inputs": [],
      "name": "admin",
      "outputs": [
        {
          "internalType": "address",
          "name": "",
          "type": "address"
        }
      ],
      "stateMutability": "view",
      "type": "function"
    },
    {
      "inputs": [
        {
          "internalType": "bytes32",
          "name": "",
          "type": "bytes32"
        }
      ],
      "name": "certificates",
      "outputs": [
        {
          "internalType": "string",
          "name": "ipfsCID",
          "type": "string"
        },
        {
          "internalType": "bytes32",
          "name": "certHash",
          "type": "bytes32"
        },
        {
          "internalType": "address",
          "name": "student",
          "type": "address"
        },
        {
          "internalType": "address",
          "name": "institution",
          "type": "address"
        },
        {
          "internalType": "uint256",
          "name": "issueDate",
          "type": "uint256"
        },
        {
          "internalType": "uint256",
          "name": "expiryDate",
          "type": "uint256"
        },
        {
          "internalType": "bool",
          "name": "revoked",
          "type": "bool"
        }
      ],
      "stateMutability": "view",
      "type": "function"
    },
    {
      "inputs": [
        {
          "internalType": "bytes32",
          "name": "certId",
          "type": "bytes32"
        }
      ],
      "name": "getCertificate",
      "outputs": [
        {
          "components": [
            {
              "internalType": "string",
              "name": "ipfsCID",
              "type": "string"
            },
            {
              "internalType": "bytes32",
              "name": "certHash",
              "type": "bytes32"
            },
            {
              "internalType": "address",
              "name": "student",
              "type": "address"
            },
            {
              "internalType": "address",
              "name": "institution",
              "type": "address"
            },
            {
              "internalType": "uint256",
              "name": "issueDate",
              "type": "uint256"
            },
            {
              "internalType": "uint256",
              "name": "expiryDate",
              "type": "uint256"
            },
            {
              "internalType": "bool",
              "name": "revoked",
              "type": "bool"
            }
          ],
          "internalType": "struct CertificateRegistry.Certificate",
          "name": "",
          "type": "tuple"
        }
      ],
      "stateMutability": "view",
      "type": "function"
    },
    {
      "inputs": [
        {
          "internalType": "address",
          "name": "student",
          "type": "address"
        }
      ],
      "name": "getStudentCertificates",
      "outputs": [
        {
          "internalType": "bytes32[]",
          "name": "",
          "type": "bytes32[]"
        }
      ],
      "stateMutability": "view",
      "type": "function"
    },
    {
      "inputs": [
        {
          "internalType": "address",
          "name": "account",
          "type": "address"
        },
        {
          "internalType": "enum AccessControl.Role",
          "name": "role",
          "type": "uint8"
        }
      ],
      "name": "grantRole",
      "outputs": [],
      "stateMutability": "nonpayable",
      "type": "function"
    },
    {
      "inputs": [
        {
          "internalType": "address",
          "name": "account",
          "type": "address"
        },
        {
          "internalType": "enum AccessControl.Role",
          "name": "role",
          "type": "uint8"
        }
      ],
      "name": "hasRole",
      "outputs": [
        {
          "internalType": "bool",
          "name": "",
          "type": "bool"
        }
      ],
      "stateMutability": "view",
      "type": "function"
    },
    {
      "inputs": [
        {
          "internalType": "bytes32",
          "name": "certId",
          "type": "bytes32"
        }
      ],
      "name": "isRevoked",
      "outputs": [
        {
          "internalType": "bool",
          "name": "",
          "type": "bool"
        }
      ],
      "stateMutability": "view",
      "type": "function"
    },
    {
      "inputs": [
        {
          "internalType": "string",
          "name": "ipfsCID",
          "type": "string"
        },
        {
          "internalType": "bytes32",
          "name": "certHash",
          "type": "bytes32"
        },
        {
          "internalType": "address",
          "name": "student",
          "type": "address"
        },
        {
          "internalType": "uint256",
          "name": "expiryDate",
          "type": "uint256"
        }
      ],
      "name": "issueCertificate",
      "outputs": [
        {
          "internalType": "bytes32",
          "name": "",
          "type": "bytes32"
        }
      ],
      "stateMutability": "nonpayable",
      "type": "function"
    },
    {
      "inputs": [
        {
          "internalType": "uint256",
          "name": "",
          "type": "uint256"
        }
      ],
      "name": "revocationRegistry",
      "outputs": [
        {
          "internalType": "bytes32",
          "name": "",
          "type": "bytes32"
        }
      ],
      "stateMutability": "view",
      "type": "function"
    },
    {
      "inputs": [
        {
          "internalType": "bytes32",
          "name": "certId",
          "type": "bytes32"
        }
      ],
      "name": "revokeCertificate",
      "outputs": [],
      "stateMutability": "nonpayable",
      "type": "function"
    },
    {
      "inputs": [
        {
          "internalType": "address",
          "name": "account",
          "type": "address"
        }
      ],
      "name": "revokeRole",
      "outputs": [],
      "stateMutability": "nonpayable",
      "type": "function"
    },
    {
      "inputs": [
        {
          "internalType": "address",
          "name": "",
          "type": "address"
        }
      ],
      "name": "roles",
      "outputs": [
        {
          "internalType": "enum AccessControl.Role",
          "name": "",
          "type": "uint8"
        }
      ],
      "stateMutability": "view",
      "type": "function"
    },
    {
      "inputs": [
        {
          "internalType": "address",
          "name": "",
          "type": "address"
        },
        {
          "internalType": "uint256",
          "name": "",
          "type": "uint256"
        }
      ],
      "name": "studentCertificates",
      "outputs": [
        {
          "internalType": "bytes32",
          "name": "",
          "type": "bytes32"
        }
      ],
      "stateMutability": "view",
      "type": "function"
    },
    {
      "inputs": [
        {
          "internalType": "bytes32",
          "name": "certId",
          "type": "bytes32"
        }
      ],
      "name": "verifyCertificate",
      "outputs": [
        {
          "internalType": "bool",
          "name": "",
          "type": "bool"
        }
      ],
      "stateMutability": "view",
      "type": "function"
    }
  ],
  "bytecode": "0x608060405234801561001057600080fd5b5060018054336001600160a01b0319909116811782556000908152602081905260409020805460ff1916909117905561105e8061004e6000396000f3fe608060405234801561001057600080fd5b50600436106100ea5760003560e01c806395a8c58d1161008c578063c6cbc52a11610066578063c6cbc52a14610215578063ebc63bc014610228578063f333fe0814610248578063f851a4401461026857600080fd5b806395a8c58d146101bf57806399374642146101d2578063c3934f0e1461020257600080fd5b80634e4af1be116100c85780634e4af1be14610160578063742f06881461017357806380e52e3f14610199578063850c1768146101ac57600080fd5b806324eeb07e146100ef5780633e840236146101155780634294857f1461012a575b600080fd5b6101026100fd366004610bdf565b610293565b6040519081526020015b60405180910390f35b610128610123366004610cb2565b61047c565b005b610150610138366004610ced565b60009081526002602052604090206006015460ff1690565b604051901515815260200161010c565b61010261016e366004610ced565b610542565b610186610181366004610ced565b610563565b60405161010c9796959493929190610d4c565b6101286101a7366004610d9c565b610638565b6101506101ba366004610ced565b6106c8565b6101506101cd366004610cb2565b610808565b6101f56101e0366004610d9c565b60006020819052908152604090205460ff1681565b60405161010c9190610dd4565b610102610210366004610dfc565b610851565b610128610223366004610ced565b610882565b61023b610236366004610d9c565b610a0a565b60405161010c9190610e26565b61025b610256366004610ced565b610a76565b60405161010c9190610e6a565b60015461027b906001600160a01b031681565b6040516001600160a01b03909116815260200161010c565b60006003803360009081526020819052604090205460ff1660058111156102bc576102bc610dbe565b146102fd5760405162461bcd60e51b815260206004820152600c60248201526b155b985d5d1a1bdc9a5e995960a21b60448201526064015b60405180910390fd5b60408051602081018790526bffffffffffffffffffffffff19606087901b169181019190915242605482015260009060740160408051601f19818403018152828252805160209182012060e0840183528a84528382018a90526001600160a01b0389168484015233606085015242608085015260a08401889052600060c085018190528181526002909252919020825191935090819061039d9082610f68565b506020828101516001838101919091556040808501516002850180546001600160a01b03199081166001600160a01b0393841617909155606087015160038088018054909316918416919091179091556080870151600487015560a0870151600587015560c0909601516006909501805460ff191695151595909517909455928916600081815294835283852080549283018155855293829020018490558151928352339083015282917f96acc7d29f59de96f3b52573049182d873062e60b6dd01e0bf81b3cb8f107822910160405180910390a29695505050505050565b6001546001600160a01b031633146104c35760405162461bcd60e51b815260206004820152600a60248201526927b7363c9030b236b4b760b11b60448201526064016102f4565b6001600160a01b0382166000908152602081905260409020805482919060ff191660018360058111156104f8576104f8610dbe565b0217905550816001600160a01b03167faa259565575c834bc07e74dca784b4071676133ac78513b431afb6ee7edae121826040516105369190610dd4565b60405180910390a25050565b6004818154811061055257600080fd5b600091825260209091200154905081565b60026020526000908152604090208054819061057e90610edf565b80601f01602080910402602001604051908101604052809291908181526020018280546105aa90610edf565b80156105f75780601f106105cc576101008083540402835291602001916105f7565b820191906000526020600020905b8154815290600101906020018083116105da57829003601f168201915b5050505060018301546002840154600385015460048601546005870154600690970154959693956001600160a01b0393841695509290911692909160ff1687565b6001546001600160a01b0316331461067f5760405162461bcd60e51b815260206004820152600a60248201526927b7363c9030b236b4b760b11b60448201526064016102f4565b6001600160a01b038116600081815260208190526040808220805460ff19169055517f6107a4a5447a4208ba14e3ec240bccf0a93828124ccf501af04601031070b1839190a250565b600081815260026020526040808220815160e08101909252805483929190829082906106f390610edf565b80601f016020809104026020016040519081016040528092919081815260200182805461071f90610edf565b801561076c5780601f106107415761010080835404028352916020019161076c565b820191906000526020600020905b81548152906001019060200180831161074f57829003601f168201915b50505091835250506001820154602082015260028201546001600160a01b039081166040830152600383015416606082015260048201546080820152600582015460a082015260069091015460ff16151560c091820152810151909150156107d75750600092915050565b60008160a001511180156107ee57508060a0015142115b156107fc5750600092915050565b60200151151592915050565b600081600581111561081c5761081c610dbe565b6001600160a01b03841660009081526020819052604090205460ff16600581111561084957610849610dbe565b149392505050565b6003602052816000526040600020818154811061086d57600080fd5b90600052602060002001600091509150505481565b6003803360009081526020819052604090205460ff1660058111156108a9576108a9610dbe565b146108e55760405162461bcd60e51b815260206004820152600c60248201526b155b985d5d1a1bdc9a5e995960a21b60448201526064016102f4565b600082815260026020526040902060038101546001600160a01b031633146109465760405162461bcd60e51b81526020600482015260146024820152734e6f7420796f757220636572746966696361746560601b60448201526064016102f4565b600681015460ff161561098d5760405162461bcd60e51b815260206004820152600f60248201526e105b1c9958591e481c995d9bdad959608a1b60448201526064016102f4565b60068101805460ff191660019081179091556004805491820181556000527f8a35acfbc15ff81a39ae7d344fd709f28e8600b4aa8c65c6b64bfe7fe36bd19b0183905560405142815283907fba2ff7aceccd1742d00e386f05d483c89cbb4e8ebf02234c436df1ec854261fd9060200160405180910390a2505050565b6001600160a01b038116600090815260036020908152604091829020805483518184028101840190945280845260609392830182828015610a6a57602002820191906000526020600020905b815481526020019060010190808311610a56575b50505050509050919050565b6040805160e081018252606080825260006020830181905292820183905281018290526080810182905260a0810182905260c081019190915260008281526002602052604090819020815160e08101909252805482908290610ad790610edf565b80601f0160208091040260200160405190810160405280929190818152602001828054610b0390610edf565b8015610b505780601f10610b2557610100808354040283529160200191610b50565b820191906000526020600020905b815481529060010190602001808311610b3357829003601f168201915b50505091835250506001820154602082015260028201546001600160a01b039081166040830152600383015416606082015260048201546080820152600582015460a082015260069091015460ff16151560c09091015292915050565b634e487b7160e01b600052604160045260246000fd5b80356001600160a01b0381168114610bda57600080fd5b919050565b60008060008060808587031215610bf557600080fd5b843567ffffffffffffffff80821115610c0d57600080fd5b818701915087601f830112610c2157600080fd5b813581811115610c3357610c33610bad565b604051601f8201601f19908116603f01168101908382118183101715610c5b57610c5b610bad565b816040528281528a6020848701011115610c7457600080fd5b82602086016020830137600060208483010152809850505050505060208501359250610ca260408601610bc3565b9396929550929360600135925050565b60008060408385031215610cc557600080fd5b610cce83610bc3565b9150602083013560068110610ce257600080fd5b809150509250929050565b600060208284031215610cff57600080fd5b5035919050565b6000815180845260005b81811015610d2c57602081850181015186830182015201610d10565b506000602082860101526020601f19601f83011685010191505092915050565b60e081526000610d5f60e083018a610d06565b6020830198909852506001600160a01b039586166040820152939094166060840152608083019190915260a082015290151560c090910152919050565b600060208284031215610dae57600080fd5b610db782610bc3565b9392505050565b634e487b7160e01b600052602160045260246000fd5b6020810160068310610df657634e487b7160e01b600052602160045260246000fd5b91905290565b60008060408385031215610e0f57600080fd5b610e1883610bc3565b946020939093013593505050565b6020808252825182820181905260009190848201906040850190845b81811015610e5e57835183529284019291840191600101610e42565b50909695505050505050565b602081526000825160e06020840152610e87610100840182610d06565b905060208401516040840152604084015160018060a01b0380821660608601528060608701511660808601525050608084015160a084015260a084015160c084015260c0840151151560e08401528091505092915050565b600181811c90821680610ef357607f821691505b602082108103610f1357634e487b7160e01b600052602260045260246000fd5b50919050565b601f821115610f6357600081815260208120601f850160051c81016020861015610f405750805b601f850160051c820191505b81811015610f5f57828155600101610f4c565b5050505b505050565b815167ffffffffffffffff811115610f8257610f82610bad565b610f9681610f908454610edf565b84610f19565b602080601f831160018114610fcb5760008415610fb35750858301515b600019600386901b1c1916600185901b178555610f5f565b600085815260208120601f198616915b82811015610ffa57888601518255948401946001909101908401610fdb565b50858210156110185787850151600019600388901b60f8161c191681555b5050505050600190811b0190555056fea26469706673582212203ad5664a00b14c4de286cffda097e38ee428e631ecf8eb5aacaf1fecd5cf922164736f6c63430008140033",
  "linkReferences": {},
  "deployedLinkReferences": {}
}